:040000005FEF00F0BE
:100008000182F2A40AEF00F00CEF00F05DEF00F0BF
:10001800F294EC0ED76E780ED66E4B4A4C2A010E2F
:100028004526000E462247224822E80E4B5C030E66
:100038004C58D8A022EF00F024EF00F05DEF00F05C
:100048004C6A000E4B6E4D2A3B0E4D642EEF00F0AD
:1000580030EF00F05DEF00F04D6A4E2A3B0E4E6423
:1000680038EF00F03AEF00F05DEF00F04E6A4F2AEB
:10007800170E4F6442EF00F044EF00F05DEF00F020
:100088004F6A502A1E0E50644CEF00F04EEF00F0FD
:100098005DEF00F0010E506E512A0C0E516457EFBF
:1000A80000F059EF00F05DEF00F0010E516E524A7A
:0A00B800532A019211006EEF0AF0C6
:1010000000000F0EC16E938092908990880ED56E6D
:10101000EC0ED76E780ED66EF294F28AF28E436A98
:10102000000E3F6E000E406E000E416E000E426ECE
:10103000000E81B0010E446E4404D8A422EF08F0E3
:1010400024EF08F0A9EF08F04350D8A42AEF08F0E5
:101050002CEF08F0A9EF08F0820E1C6EDE0EE82ED1
:10106000FED71C2EFCD781A038EF08F03AEF08F02D
:101070004AEF09F020EE4DF010EE30F0060EDBCF17
:10108000E3FFE806FCE24D501C6E1D6AE80E1C02F0
:10109000F3CF1EF0F4CF1FF01D02F3501F26030EF6
:1010A0001C02F3501F261EC020F01FC021F0000EAE
:1010B00021BEFF0E226E236E4F50026E036A046A39
:1010C000056A800E066EEE0E076E360E086E000E76
:1010D000096E17EC0AF002C024F003C025F004C02A
:1010E00026F005C027F04E50026E036A046A056AB6
:1010F000600E066EEA0E076E000E086E000E096E98
:1011000017EC0AF002502424286E03502520296E83
:10111000045026202A6E055027202B6E20502824AC
:101120002C6E215029202D6E22502A202E6E235005
:101130002B202F6E4B502C243F6E4C502D20406E98
:10114000000E2E20416E000E2F20426E89804AEF45
:1011500009F04450D8A4AFEF08F0B1EF08F04AEF1F
:1011600009F04304D8A4B7EF08F0B9EF08F04AEF4C
:1011700009F0820E1C6EDE0EE82EFED71C2EFCD768
:1011800081B0C5EF08F0C7EF08F04AEF09F04D5005
:101190001C6E1D6AE80E1C02F3CF1EF0F4CF1FF088
:1011A0001D02F3501F26030E1C02F3501F261EC003
:1011B00020F01FC021F0000E21BEFF0E226E236E14
:1011C0004F50026E036A046A056A800E066EEE0EC8
:1011D000076E360E086E000E096E17EC0AF002C09C
:1011E00024F003C025F004C026F005C027F04E50BF
:1011F000026E036A046A056A600E066EEA0E076EE6
:10120000000E086E000E096E17EC0AF0025024243E
:10121000286E03502520296E045026202A6E055082
:1012200027202B6E205028242C6E215029202D6E33
:1012300022502A202E6E23502B202F6E4B502C2410
:10124000376E4C502D20386E000E2E20396E000E59
:101250002F203A6E3F50375C3B6E405038583C6E02
:10126000415039583D6E42503A583E6E899020EEBA
:1012700030F000EE0FF0060EDBCFEBFFE806FCE2ED
:101280003BC016F03CC017F03DC018F03EC019F04E
:1012900050EC09F044C043F018EF08F05FEF00F0A5
:1012A000F90E495C030E4A58D8A059EF09F05BEFDC
:1012B00009F05DEF09F0C4EF09F049C002F04AC03F
:1012C00003F012C004F04CEC0AF0494A4A2A49C023
:1012D00002F04AC003F013C004F04CEC0AF0494A93
:1012E0004A2A49C002F04AC003F01450300F046E7D
:1012F0004CEC0AF0494A4A2A49C002F04AC003F0BD
:1013000011C004F04CEC0AF0494A4A2A49C002F0E4
:101310004AC003F010C004F04CEC0AF0494A4A2AD3
:1013200049C002F04AC003F00FC004F04CEC0AF0D0
:10133000494A4A2A16C002F017C003F018C004F048
:1013400019C005F0E80E066E030E076E000E086E5B
:10135000000E096EC5EC09F002C01AF003C01BF0C4
:1013600049C002F04AC003F01B50046E4CEC0AF076
:10137000494A4A2A49C002F04AC003F01AC004F0A0
:101380004CEC0AF0494A4A2A1200000E0A6E000E7E
:101390000B6E000E0C6E000E0D6E0650071008103E
:1013A0000910D8B4D6EF09F0D8EF09F00EEF0AF023
:1013B000010E0E6EE2EF09F0D890063607360836B9
:1013C00009360E2A09AEE7EF09F0E9EF09F0DCEF84
:1013D00009F0D8900A360B360C360D360650025CF2
:1013E000075003580850045809500558D8A0FBEF7F
:1013F00009F0FDEF09F006EF0AF00650025E075013
:10140000035A0850045A0950055A0A80D8900932E4
:101410000832073206320E2EE9EF09F00AC002F058
:101420000BC003F00CC004F00DC005F01200000E5C
:101430000A6E000E0B6E000E0C6E000E0D6E02A0FA
:1014400024EF0AF026EF0AF02EEF0AF006500A26E3
:1014500007500B2208500C2209500D22D890063656
:10146000073608360936D890053204320332023284
:101470000250031004100510D8A441EF0AF043EF06
:101480000AF01FEF0AF00AC002F00BC003F00CC014
:1014900004F00DC005F012000350030BAA6E02C049
:1014A000A9FF04C0A8FFA69EA69CA684000EF2BEBB
:1014B000010E056EF29E550EA76EAA0EA76EA682AD
:1014C00005B002D0F29E01D0F28EA6B26AEF0AF009
:1014D0006CEF0AF065EF0AF0A6941200120EF66E99
:1014E000150EF76E000EF86E00EE4DF010EE07F0E0
:1014F0000900F5CFEEFFE550E150FAE100EE45F0CE
:10150000080EEE6AE806FDE101900192000101EF8C
:0915100008F000000C0709EA07CD
:020000040030CA
:08000000FF02191EFF8081FFC1
:00000001FF
