:040000005AEF00F0C3
:100008000182D9CF02F0DACF03F0F2A40EEF00F0AC
:1000180010EF00F02FEF00F0F2940EEC0DF0050E4B
:10002800496019EF00F01BEF00F02FEF00F0492AAC
:10003800040E4918D8A423EF00F025EF00F02FEFA5
:1000480000F04A50D8B42BEF00F02DEF00F02FEF5E
:1000580000F0010E486E9EAA34EF00F036EF00F073
:1000680054EF00F0AECF04F0ABA23DEF00F03FEF4D
:1000780000F041EF00F0AB98AB88496A486A400E3F
:100088004A6049EF00F04BEF00F054EF00F0000E2B
:100098004A24D96EDA6A010EDA2204C0DFFF4A2A3E
:1000A80003C0DAFF02C0D9FF019211000EEF0EF073
:10100000004576656E746F206E6F20656E642025D6
:101010003033583A20253032642F253032642F2562
:1010200030346420253032643A253032643A253039
:101030003264207C204475726163616F3A202575AB
:10104000207365670D0A003E3E2041204545505201
:101050004F4D20657374612076617A69612E204E50
:10106000656E68756D206576656E746F2072656754
:101070006973747261646F2E0D0A000D0A2D2D2D97
:1010800020494E4943494F204441204C454954553D
:10109000524120444120454550524F4D202D2D2D89
:1010A0000D0A002D2D2D2046494D204441204C4550
:0D10B0004954555241202D2D2D0D0A0000F0
:1010BE00040E106065EF08F067EF08F069EF08F0B6
:1010CE009FEF0AF00EC0D9FF0FC0DAFFDE04D8B4CE
:1010DE0073EF08F075EF08F077EF08F09FEF0AF066
:1010EE0010500E24116E000E0F20126EFE0E1124E3
:1010FE00D96EFF0E1220DA6EDF50136E10500E24D2
:10110E00146E000E0F20156EFF0E1424D96EFF0EF6
:10111E001520DA6EDF50166E13500001A06F16C048
:10112E00A1F00EC005F00FC006F01050FE0F076EB6
:10113E005FEC0DF005C0A2F006C0A3F00001A251B5
:10114E00A01909E1A351A119D8B4B0EF08F0B2EF7C
:10115E0008F0B4EF08F09FEF0AF020EE01F00E5009
:10116E00D9260F50DA22030EDE18D8A4C1EF08F0EC
:10117E00C3EF08F06FEF09F020EE03F00E50D92602
:10118E000F50DA22DF50116E20EE02F00E50D926EB
:10119E000F50DA22DF50126E1150AE6F12C0AFF048
:1011AE0020EE05F00E50D9260F50DA22DF50116EC8
:1011BE0020EE04F00E50D9260F50DA22DF50126EB8
:1011CE001150C46F12C0C5F0C451AE25116EC55179
:1011DE00AF21126E125009E1150E115CD8A0FAEF74
:1011EE0008F0FCEF08F0FEEF08F09FEF0AF0010E9A
:1011FE00606F030E616FC451C425626F030EC76F1B
:10120E00BD6B000EBC6F2BEF09F0BC51020DF3CF7E
:10121E0011F0AE51020DF350C80F1124D96EDA6AD7
:10122E00DECFB0F0DDCFB1F0C751600FD96EDA6A04
:10123E00B151DF6EC72BC751600FD96EDA6AB0C0DD
:10124E00DFFFC72BBC4BBD2BC451BC5DC551BD5977
:10125E00D8A034EF09F036EF09F00CEF09F0600E6C
:10126E00056E066AC7C007F05FEC0DF005C0B2F060
:10127E0006C0B3F00001C751600FD96EDA6AB2C072
:10128E00DFFFC72BC751600FD96EDA6AB351DF6E1D
:10129E00C72BBF6B000EBE6F5FEF09F0BE51600F24
:1012AE00D96EDA6ADF5059EC0EF00001BE4BBF2B3F
:1012BE00C751116E126A1150BE5D1250BF59D8A09F
:1012CE006BEF09F06DEF09F055EF09F09FEF0AF0A3
:1012DE0020EE01F00E50D9260F50DA22060EDE183F
:1012EE00D8A47CEF09F07EEF09F0D4EF09F020EEE0
:1012FE0003F00E50D9260F50DA22DF50116E20EE79
:10130E0002F00E50D9260F50DA22DF50126E115015
:10131E00B46F12C0B5F020EE05F00E50D9260F5066
:10132E00DA22DF50116E20EE04F00E50D9260F5047
:10133E00DA22DF50126E1150A46F12C0A5F0B55113
:10134E0007E1140EB45DD8B0AFEF09F0B1EF09F0BC
:10135E00BBEF09F0B451020DF350C80FD96EDA6A23
:10136E00A4C0DEFFA5C0DDFFC26BC9EF09F0C251FC
:10137E000E24D96E000E0F20DA6EDF5059EC0EF0EF
:10138E000001C22B1050C25DD8A0D0EF09F0D2EFF1
:10139E0009F0BEEF09F09FEF0AF020EE01F00E50BB
:1013AE00D9260F50DA22100EDE18D8A4E1EF09F07C
:1013BE00E3EF09F09FEF0AF020EE03F00E50D9266E
:1013CE000F50DA22DF50116E20EE02F00E50D926A9
:1013DE000F50DA22DF50126E1150B66F12C0B7F0F6
:1013EE0020EE05F00E50D9260F50DA22DF50116E86
:1013FE0020EE04F00E50D9260F50DA22DF50126E76
:10140E001150B86F12C0B9F0B851B625116EB9515E
:10141E00B721126E125007E1150E115CD8B01AEFFB
:10142E000AF01CEF0AF059EF0AF0070EC36FC16BFA
:10143E00000EC06F4EEF0AF0C3510E24116E000E57
:10144E000F20126E010E1124D96E000E1220DA6ECC
:10145E00DF50136EC3510E24D96E000E0F20DA6EBC
:10146E00DF50156E1350146EC051020DF3CF16F0EF
:10147E00B651020DF350C80F1624D96EDA6A14C095
:10148E00DEFF15C0DDFF020EC327C04BC12BB851C6
:10149E00C05DB951C159D8A057EF0AF059EF0AF003
:1014AE0023EF0AF0010EA66F100EA76F20EE02F0CA
:1014BE000E50D9260F50DA22DF50A86F20EE03F01F
:1014CE000E50D9260F50DA22DF50A96F20EE04F00D
:1014DE000E50D9260F50DA22DF50AA6F20EE05F0FB
:1014EE000E50D9260F50DA22DF50AB6FA60E056EC6
:1014FE00066A060E076E5FEC0DF005C0BAF006C068
:10150E00BBF0BAC0ACF00001BB51AD6FC66BC6519B
:10151E00A60FD96EDA6ADF5059EC0EF00001C62B19
:10152E00070EC6659DEF0AF09FEF0AF08EEF0AF0E8
:10153E0012000F0EC16E938092908990800E126EE3
:10154E00250E136E000E146E000E156E9FEC0DF030
:10155E00880ED56EEC0ED76E780ED66EF294F28A99
:10156E009D8AF28CF28E376A000E2F6E000E306E50
:10157E00000E316E000E326E0001E96B000EE86F48
:10158E000001E805E911D8A4CFEF0AF0D1EF0AF077
:10159E00E4EF0AF0F29ADCC050F0DDC051F0DEC08C
:1015AE004FF0E0C04EF0E2C04DF0E4C04CF0E6C0AB
:1015BE004BF0E96B000EE86FF28A000E81B0010E5F
:1015CE00386E38C0C8F0C96B3804D8A4F1EF0AF0F1
:1015DE00F3EF0AF06EEF0BF03750D8A4F9EF0AF0E4
:1015EE00FBEF0AF06EEF0BF0820E1F6EDE0EE82E92
:1015FE00FED71F2EFCD781A007EF0BF009EF0BF0E3
:10160E002FEF0CF020EE4BF010EE39F0060EDBCF84
:10161E00E3FFE806FCE24D50056E066A076A086AAB
:10162E00800E096EEE0E0A6E360E0B6E000E0C6EEE
:10163E00D9EC0DF005C01FF006C020F007C021F058
:10164E0008C022F04C50056E066A076A086A600EE2
:10165E00096EEA0E0A6E000E0B6E000E0C6ED9ECC1
:10166E000DF005501F24236E06502020246E0750C7
:10167E002120256E08502220266E4B50056E066ADC
:10168E00076A086AE80E096E030E0A6E000E0B6EEC
:10169E00000E0C6ED9EC0DF005502324276E06506B
:1016AE002420286E07502520296E085026202A6EE9
:1016BE00465027242F6E47502820306E000E2920CA
:1016CE00316E000E2A20326E89802FEF0CF03850CA
:1016DE00D8A474EF0BF076EF0BF02FEF0CF037046D
:1016EE00D8A47CEF0BF07EEF0BF02FEF0CF0820EF8
:1016FE001F6EDE0EE82EFED71F2EFCD781B08AEFAE
:10170E000BF08CEF0BF02FEF0CF04D50056E066AC0
:10171E00076A086A800E096EEE0E0A6E360E0B6EA2
:10172E00000E0C6ED9EC0DF005C01FF006C020F0B7
:10173E0007C021F008C022F04C50056E066A076AF9
:10174E00086A600E096EEA0E0A6E000E0B6E000E2F
:10175E000C6ED9EC0DF005501F24236E0650202080
:10176E00246E07502120256E08502220266E4B50E5
:10177E00056E066A076A086AE80E096E030E0A6E9F
:10178E00000E0B6E000E0C6ED9EC0DF005502324DE
:10179E00276E06502420286E07502520296E0850EB
:1017AE0026202A6E465027242B6E475028202C6E5A
:1017BE00000E29202D6E000E2A202E6E2F502B5C2F
:1017CE00336E30502C58346E31502D58356E325099
:1017DE002E58366E899020EE39F000EE12F0060E7D
:1017EE00DBCFEBFFE806FCE233C019F034C01AF091
:1017FE0035C01BF036C01CF047EC0CF033C005F0C2
:10180E0034C006F035C007F036C008F0E80E096E99
:10181E00030E0A6E000E0B6E000E0C6EBCEC0CF07E
:10182E0005C0CAF006C0CBF03EC0CCF03FC0CDF034
:10183E003D501F6E3C500001CE6F1FC0CFF03B508D
:10184E001F6E3A50D06F1FC0D1F039C0D2F0D36B9B
:10185E0038C037F04850D8B437EF0CF039EF0CF0F1
:10186E00C7EF0AF0000E0E6E010E0F6E4AC010F09A
:10187E005FEC08F04A6A486AC7EF0AF05AEF00F0C8
:10188E00F90E445C030E4558D8A050EF0CF052EF01
:10189E000CF054EF0CF0BBEF0CF044C005F045C05B
:1018AE0006F015C007F037EC0EF0444A452A44C046
:1018BE0005F045C006F016C007F037EC0EF0444AAE
:1018CE00452A44C005F045C006F01750300F076E8C
:1018DE0037EC0EF0444A452A44C005F045C006F0E8
:1018EE0014C007F037EC0EF0444A452A44C005F008
:1018FE0045C006F013C007F037EC0EF0444A452AF7
:10190E0044C005F045C006F012C007F037EC0EF0EB
:10191E00444A452A19C005F01AC006F01BC007F04C
:10192E001CC008F0E80E096E030E0A6E000E0B6E58
:10193E00000E0C6EBCEC0CF005C01DF006C01EF0C7
:10194E0044C005F045C006F01E50076E37EC0EF091
:10195E00444A452A44C005F045C006F01DC007F0B4
:10196E0037EC0EF0444A452A1200000E0D6E000EA2
:10197E000E6E000E0F6E000E106E09500A100B1038
:10198E000C10D8B4CDEF0CF0CFEF0CF005EF0DF03E
:10199E00010E116ED9EF0CF0D89009360A360B36BF
:1019AE000C36112A0CAEDEEF0CF0E0EF0CF0D3EF9C
:1019BE000CF0D8900D360E360F3610360950055CE9
:1019CE000A5006580B5007580C500858D8A0F2EF82
:1019DE000CF0F4EF0CF0FDEF0CF00950055E0A5020
:1019EE00065A0B50075A0C50085A0D80D8900C32DC
:1019FE000B320A320932112EE0EF0CF00DC005F059
:101A0E000EC006F00FC007F010C008F01200EC0E6A
:101A1E00D76E780ED66E464A472A010E4026000E25
:101A2E00412242224322E80E465C030E4758D8A0BC
:101A3E0023EF0DF025EF0DF05EEF0DF0476A000E6F
:101A4E00466E4B2A3B0E4B642FEF0DF031EF0DF02F
:101A5E005EEF0DF04B6A4C2A3B0E4C6439EF0DF0E5
:101A6E003BEF0DF05EEF0DF04C6A4D2A170E4D64F4
:101A7E0043EF0DF045EF0DF05EEF0DF04D6A4E2A7F
:101A8E001E0E4E644DEF0DF04FEF0DF05EEF0DF0AC
:101A9E00010E4E6E4F2A0C0E4F6458EF0DF05AEF9A
:101AAE000DF05EEF0DF0010E4F6E504A512A1200EE
:101ABE000C680D680B6A91EF0DF00B500524D96E72
:101ACE00000E0620DA6EDF50086E08500C1A0A6AF5
:101ADE00080E096E0CA076EF0DF078EF0DF081EF89
:101AEE000DF0D8900D320C32010E0C1AA00E0D1AFC
:101AFE0084EF0DF0D8900D320C320906D8A00A06EC
:101B0E0009500A10D8A48EEF0DF090EF0DF071EF82
:101B1E000DF00B2A07500B5CD8A098EF0DF09AEF42
:101B2E000DF064EF0DF00CC005F00DC006F01200C4
:101B3E00948C948E000E056E2D0E066E310E076E71
:101B4E00010E086E12C016F013C017F014C018F074
:101B5E0015C019F0040ED8901636173618361936E9
:101B6E00E82EB2EF0DF016C009F017C00AF018C03B
:101B7E000BF019C00CF0BCEC0CF0FF0E05241A6E25
:101B8E00FF0E06201B6EFF0E07201C6EFF0E082098
:101B9E001D6EAC84B8961AC0AFFFAC98AC8AAB88F9
:101BAE00AB8E1200000E0D6E000E0E6E000E0F6E3E
:101BBE00000E106E05A0E6EF0DF0E8EF0DF0F0EF61
:101BCE000DF009500D260A500E220B500F220C500C
:101BDE001022D89009360A360B360C36D8900832B9
:101BEE000732063205320550061007100810D8A429
:101BFE0003EF0EF005EF0EF0E1EF0DF00DC005F066
:101C0E000EC006F00FC007F010C008F01200C80E8C
:101C1E00F66E1C0EF76E000EF86E00EE4BF010EE28
:101C2E0007F00900F5CFEEFFE550E150FAE101EEC5
:101C3E0000F0400EEE6AE806FDE100EEC8F0280E58
:101C4E00EE6AE806FDE100EE40F00B0EEE6AE806E5
:101C5E00FDE101900192000EF86E0001A0EF0AF076
:101C6E000650030BAA6E05C0A9FF07C0A8FFA69ECB
:101C7E00A69CA684000EF2BE010E086EF29E550EB4
:101C8E00A76EAA0EA76EA68208B002D0F29E01D051
:101C9E00F28EA6B255EF0EF057EF0EF050EF0EF09B
:101CAE00A6941200056EACA25FEF0EF061EF0EF07F
:101CBE005AEF0EF005C0ADFF120000000C0709EA46
:011CCE00070E
:020000040030CA
:08000000FF02191EFF8081FFC1
:00000001FF
