:0400000059EF00F0C4
:100008000182F2A40AEF00F00CEF00F057EF00F0C5
:10001800F294EC0ED76E780ED66E4E4A4F2AE80E42
:100028004E5C030E4F58D8A01CEF00F01EEF00F0F6
:1000380057EF00F04F6A000E4E6E452A3B0E45649E
:1000480028EF00F02AEF00F057EF00F0456A462A43
:100058003B0E466432EF00F034EF00F057EF00F04B
:10006800466A472A170E47643CEF00F03EEF00F05F
:1000780057EF00F0476A482A1E0E486446EF00F022
:1000880048EF00F057EF00F0010E486E492A0C0EB9
:10009800496451EF00F053EF00F057EF00F0010E04
:0E00A800496E4A4A4B2A019211006AEF0AF093
:1010000000000F0EC16E9380880ED56EEC0ED76E69
:10101000780ED66EF294F28AF28E436A000E3F6E1C
:10102000000E406E000E416E000E426E000E81B04A
:10103000010E446E4404D8A420EF08F022EF08F01B
:10104000A6EF08F04350D8A428EF08F02AEF08F0E4
:10105000A6EF08F0820E1C6EDE0EE82EFED71C2EC8
:10106000FCD781A036EF08F038EF08F046EF09F022
:1010700020EE45F010EE30F0060EDBCFE3FFE80681
:10108000FCE245501C6E1D6AE80E1C02F3CF1EF0F8
:10109000F4CF1FF01D02F3501F26030E1C02F35065
:1010A0001F261EC020F01FC021F0000E21BEFF0E23
:1010B000226E236E4750026E036A046A056A800E30
:1010C000066EEE0E076E360E086E000E096E13ECFD
:1010D0000AF002C024F003C025F004C026F005C0C9
:1010E00027F04650026E036A046A056A600E066EB7
:1010F000EA0E076E000E086E000E096E13EC0AF081
:1011000002502424286E03502520296E04502620E6
:101110002A6E055027202B6E205028242C6E21503B
:1011200029202D6E22502A202E6E23502B202F6E28
:101130004E502C243F6E4F502D20406E000E2E201E
:10114000416E000E2F20426E46EF09F04450D8A4A5
:10115000ACEF08F0AEEF08F046EF09F04304D8A476
:10116000B4EF08F0B6EF08F046EF09F0820E1C6EFF
:10117000DE0EE82EFED71C2EFCD781B0C2EF08F0A1
:10118000C4EF08F046EF09F045501C6E1D6AE80EEA
:101190001C02F3CF1EF0F4CF1FF01D02F3501F26E8
:1011A000030E1C02F3501F261EC020F01FC021F0AA
:1011B000000E21BEFF0E226E236E4750026E036AA0
:1011C000046A056A800E066EEE0E076E360E086E15
:1011D000000E096E13EC0AF002C024F003C025F0E3
:1011E00004C026F005C027F04650026E036A046A68
:1011F000056A600E066EEA0E076E000E086E000E9F
:10120000096E13EC0AF002502424286E03502520A6
:10121000296E045026202A6E055027202B6E205060
:1012200028242C6E215029202D6E22502A202E6E2B
:1012300023502B202F6E4E502C24376E4F502D20D4
:10124000386E000E2E20396E000E2F203A6E3F5061
:10125000375C3B6E405038583C6E415039583D6EBB
:1012600042503A583E6E20EE30F000EE0FF0060E7F
:10127000DBCFEBFFE806FCE23BC016F03CC017F00A
:101280003DC018F03EC019F04CEC09F044C043F0EA
:1012900016EF08F059EF00F0F90E4C5C030E4D58B4
:1012A000D8A055EF09F057EF09F059EF09F0C0EF5A
:1012B00009F04CC002F04DC003F012C004F048EC3D
:1012C0000AF04C4A4D2A4CC002F04DC003F013C046
:1012D00004F048EC0AF04C4A4D2A4CC002F04DC0D4
:1012E00003F01450300F046E48EC0AF04C4A4D2ABB
:1012F0004CC002F04DC003F011C004F048EC0AF0FD
:101300004C4A4D2A4CC002F04DC003F010C004F00E
:1013100048EC0AF04C4A4D2A4CC002F04DC003F094
:101320000FC004F048EC0AF04C4A4D2A16C002F0F7
:1013300017C003F018C004F019C005F0E80E066EDF
:10134000030E076E000E086E000E096EC1EC09F068
:1013500002C01AF003C01BF04CC002F04DC003F0F5
:101360001B50046E48EC0AF04C4A4D2A4CC002F067
:101370004DC003F01AC004F048EC0AF04C4A4D2A64
:101380001200000E0A6E000E0B6E000E0C6E000EA8
:101390000D6E0650071008100910D8B4D2EF09F0EE
:1013A000D4EF09F00AEF0AF0010E0E6EDEEF09F03D
:1013B000D89006360736083609360E2A09AEE3EF0E
:1013C00009F0E5EF09F0D8EF09F0D8900A360B36AE
:1013D0000C360D360650025C07500358085004586E
:1013E00009500558D8A0F7EF09F0F9EF09F002EF1E
:1013F0000AF00650025E0750035A0850045A09507A
:10140000055A0A80D89009320832073206320E2E69
:10141000E5EF09F00AC002F00BC003F00CC004F0C5
:101420000DC005F01200000E0A6E000E0B6E000ECD
:101430000C6E000E0D6E02A020EF0AF022EF0AF0F3
:101440002AEF0AF006500A2607500B2208500C22F9
:1014500009500D22D8900636073608360936D8903E
:101460000532043203320232025003100410051018
:10147000D8A43DEF0AF03FEF0AF01BEF0AF00AC0D4
:1014800002F00BC003F00CC004F00DC005F0120018
:101490000350030BAA6E02C0A9FF04C0A8FFA69EBA
:1014A000A69CA684000EF2BE010E056EF29E550E9D
:1014B000A76EAA0EA76EA68205B002D0F29E01D03A
:1014C000F28EA6B266EF0AF068EF0AF061EF0AF05A
:1014D000A6941200060EF66E150EF76E000EF86E4C
:1014E00000EE45F010EE07F00900F5CFEEFFE550F5
:1014F000E150FAE14F6A4E6A4D6A4C6A01900192DE
:0D150000000101EF08F000000C0709EA07E8
:020000040030CA
:04000000FF02191EC4
:0200060081FF78
:00000001FF
