:040000005AEF00F0C3
:100008000182D9CF02F0DACF03F0F2A40EEF00F0AC
:1000180010EF00F030EF00F0F294ABEC0BF0050EAF
:10002800556019EF00F01BEF00F030EF00F0552A93
:10003800040E5518D8A423EF00F025EF00F030EF98
:1000480000F000017751D8B42CEF00F02EEF00F04B
:1000580030EF00F0010E766F9EAA35EF00F037EF13
:1000680000F054EF00F0AECF04F0ABA23EEF00F08A
:1000780040EF00F042EF00F0AB98AB88556A000102
:10008800766B200E77614BEF00F04DEF00F054EFE8
:1000980000F07751780FD96EDA6A04C0DFFF772B4A
:1000A80003C0DAFF02C0D9FF01921100AAEF0CF0D9
:10100000004576656E746F206E6F20656E642025D6
:101010003033583A20253032642F253032642F2562
:1010200030346420253032643A253032643A253039
:101030003264207C204475726163616F3A202575AB
:10104000207365670D0A003E3E2041204545505201
:101050004F4D20657374612076617A69612E204E50
:10106000656E68756D206576656E746F2072656754
:101070006973747261646F2E0D0A000D0A2D2D2D97
:1010800020494E4943494F204441204C454954553D
:10109000524120444120454550524F4D202D2D2D89
:1010A0000D0A002D2D2D2046494D204441204C4550
:0D10B0004954555241202D2D2D0D0A0000F0
:1010BE000F0EC16E938092908990800E126E250E47
:1010CE00136E000E146E000E156E3BEC0CF0880EB7
:1010DE00D56EEC0ED76E780ED66EF294F28A9D8A8D
:1010EE00F28CF28E0001A46B000E9C6F000E9D6FB1
:1010FE00000E9E6F000E9F6F000E81B0010EA56F49
:10110E00A5C060F0616BA505D8A490EF08F092EF32
:10111E0008F011EF09F0A451D8A498EF08F09AEF57
:10112E0008F011EF09F0820E436EDE0EE82EFED7A8
:10113E00432EFCD781A0A6EF08F0A8EF08F0D6EF5B
:10114E0009F020EEADF010EEA6F0060EDBCFE3FFB9
:10115E00E806FCE20001AF51056E066A076A086AEE
:10116E00800E096EEE0E0A6E360E0B6E000E0C6EB3
:10117E0075EC0CF005C043F006C044F007C045F016
:10118E0008C046F00001AE51056E066A076A086A8D
:10119E00600E096EEA0E0A6E000E0B6E000E0C6EDD
:1011AE0075EC0CF005504324476E06504420486EF3
:1011BE0007504520496E085046204A6E0001AD5139
:1011CE00056E066A076A086AE80E096E030E0A6E55
:1011DE00000E0B6E000E0C6E75EC0CF005504724D5
:1011EE004B6E065048204C6E075049204D6E0850ED
:1011FE004A204E6E000174514B249C6F75514C2049
:10120E009D6F000E4D209E6F000E4E209F6F8980A9
:10121E00D6EF09F0A551D8A417EF09F019EF09F090
:10122E00D6EF09F0A405D8A41FEF09F021EF09F0BD
:10123E00D6EF09F0820E436EDE0EE82EFED7432E59
:10124E00FCD781B02DEF09F02FEF09F0D6EF09F0A2
:10125E000001AF51056E066A076A086A800E096EB4
:10126E00EE0E0A6E360E0B6E000E0C6E75EC0CF05A
:10127E0005C043F006C044F007C045F008C046F074
:10128E000001AE51056E066A076A086A600E096EA5
:10129E00EA0E0A6E000E0B6E000E0C6E75EC0CF064
:1012AE0005504324476E06504420486E0750452093
:1012BE00496E085046204A6E0001AD51056E066A11
:1012CE00076A086AE80E096E030E0A6E000E0B6EB0
:1012DE00000E0C6E75EC0CF0055047244B6E06504C
:1012EE0048204C6E075049204D6E08504A204E6ED5
:1012FE00000174514B24986F75514C20996F000E5C
:10130E004D209A6F000E4E209B6F9C51985DA06FE2
:10131E009D519959A16F9E519A59A26F9F519B59F8
:10132E00A36F899020EEA6F000EE12F0060EDBCF32
:10133E00EBFFE806FCE2A0C019F0A1C01AF0A2C0B3
:10134E001BF0A3C01CF0E4EC0AF0A0C005F0A1C095
:10135E0006F0A2C007F0A3C008F0E80E096E030E57
:10136E000A6E000E0B6E000E0C6E59EC0BF005C0E3
:10137E0062F006C063F0ABC064F0ACC065F0000173
:10138E00AA51436EA951666F43C067F0A851436ED0
:10139E00A751686F43C069F0A6C06AF06B6BA5C019
:1013AE00A4F000017651D8B4DFEF09F0E1EF09F0B7
:1013BE0083EF08F0780E0D6E77C00EF0EEEC09F0AC
:1013CE000001776B766B83EF08F05AEF00F0040E96
:1013DE000E60F4EF09F0F6EF09F0F8EF09F0E3EF25
:1013EE000AF00D50D96EDA6ADE04D8B401EF0AF0B5
:1013FE0003EF0AF005EF0AF0E3EF0AF00D500E24AA
:10140E00D96EDA6AFE0ED926DF500F6E0D500E24FD
:10141E00D96EDA6AFF0ED926DF50106E0F50326E7B
:10142E0010C033F00DC005F00E50FE0F066EFDEC31
:10143E000BF005C034F006C035F03450321809E117
:10144E0035503318D8B42EEF0AF030EF0AF032EFE1
:10145E000AF0E3EF0AF00D50D96EDA6A010ED926C2
:10146E00030EDE18D8A43EEF0AF040EF0AF0E3EFC9
:10147E000AF00D50D96EDA6A030ED926DF500F6EC0
:10148E000D50D96EDA6A020ED926DF50106E0F504B
:10149E00366E10C037F00D50D96EDA6A050ED926A9
:1014AE00DF500F6E0D50D96EDA6A040ED926DF505A
:1014BE00106E0F50406E10C041F0405036240F6E2B
:1014CE0041503720106E105009E10B0E0F5CD8A062
:1014DE0073EF0AF075EF0AF077EF0AF0E3EF0AF018
:1014EE00010E126E030E136E40504024146E030E46
:1014FE00426E3D6A000E3C6EA4EF0AF03C50020DA7
:10150E00F3CF0FF03650020DF350600F0F24D96E4B
:10151E00DA6ADECF38F0DDCF39F04250120FD96ED5
:10152E00DA6A3950DF6E422A4250120FD96EDA6AE9
:10153E0038C0DFFF422A3C4A3D2A40503C5C4150B5
:10154E003D58D8A0ADEF0AF0AFEF0AF085EF0AF0E4
:10155E00120E056E42C006F0FDEC0BF005C03AF01F
:10156E0006C03BF04250120FD96EDA6A3AC0DFFF66
:10157E00422A4250120FD96EDA6A3B50DF6E422A6F
:10158E003F6A000E3E6ED5EF0AF03E50120FD96E36
:10159E00DA6ADF50EFEC0CF03E4A3F2A42500F6EF3
:1015AE00106A0F503E5C10503F58D8A0E1EF0AF081
:1015BE00E3EF0AF0CCEF0AF01200F90E535C030EC3
:1015CE005458D8A0EDEF0AF0EFEF0AF0F1EF0AF061
:1015DE0058EF0BF053C005F054C006F015C007F0DD
:1015EE00CDEC0CF0534A542A53C005F054C006F00B
:1015FE0016C007F0CDEC0CF0534A542A53C005F038
:10160E0054C006F01750300F076ECDEC0CF0534A55
:10161E00542A53C005F054C006F014C007F0CDECA8
:10162E000CF0534A542A53C005F054C006F013C0B0
:10163E0007F0CDEC0CF0534A542A53C005F054C0B9
:10164E0006F012C007F0CDEC0CF0534A542A19C024
:10165E0005F01AC006F01BC007F01CC008F0E80E1B
:10166E00096E030E0A6E000E0B6E000E0C6E59EC18
:10167E000BF005C01DF006C01EF053C005F054C09F
:10168E0006F01E50076ECDEC0CF0534A542A53C090
:10169E0005F054C006F01DC007F0CDEC0CF0534A17
:1016AE00542A1200000E0D6E000E0E6E000E0F6EFE
:1016BE00000E106E09500A100B100C10D8B46AEF01
:1016CE000BF06CEF0BF0A2EF0BF0010E116E76EF3C
:1016DE000BF0D89009360A360B360C36112A0CAEA2
:1016EE007BEF0BF07DEF0BF070EF0BF0D8900D361B
:1016FE000E360F3610360950055C0A5006580B5040
:10170E0007580C500858D8A08FEF0BF091EF0BF044
:10171E009AEF0BF00950055E0A50065A0B50075A05
:10172E000C50085A0D80D8900C320B320A32093206
:10173E00112E7DEF0BF00DC005F00EC006F00FC0A0
:10174E0007F010C008F01200EC0ED76E780ED66EB1
:10175E000001744B752B010E4F26000E50225122A4
:10176E005222E80E745D030E7559D8A0C1EF0BF02E
:10177E00C3EF0BF0FCEF0BF0756B000E746FAD2B1F
:10178E003B0EAD65CDEF0BF0CFEF0BF0FCEF0BF09A
:10179E00AD6BAE2B3B0EAE65D7EF0BF0D9EF0BF06A
:1017AE00FCEF0BF0AE6BAF2B170EAF65E1EF0BF04E
:1017BE00E3EF0BF0FCEF0BF0AF6BB02B1E0EB06532
:1017CE00EBEF0BF0EDEF0BF0FCEF0BF0010EB06F4B
:1017DE00B12B0C0EB165F6EF0BF0F8EF0BF0FCEF42
:1017EE000BF0010EB16FB24BB32B12000B680C68ED
:1017FE000A6A2DEF0CF005500A24D96EDA6ADF5012
:10180E00076E07500B1A096A080E086E0BA012EF2E
:10181E000CF014EF0CF01DEF0CF0D8900C320B32D4
:10182E00010E0B1AA00E0C1A20EF0CF0D8900C32F1
:10183E000B320806D8A0090608500910D8A42AEFC2
:10184E000CF02CEF0CF00DEF0CF00A2A06500A5C8F
:10185E00D8A034EF0CF036EF0CF002EF0CF00BC00A
:10186E0005F00CC006F01200948C948E000E056EDE
:10187E002D0E066E310E076E010E086E12C016F09A
:10188E0013C017F014C018F015C019F0040ED8903C
:10189E001636173618361936E82E4EEF0CF016C0DF
:1018AE0009F017C00AF018C00BF019C00CF059EC73
:1018BE000BF0FF0E05241A6EFF0E06201B6EFF0E98
:1018CE0007201C6EFF0E08201D6EAC84B8961AC041
:1018DE00AFFFAC98AC8AAB88AB8E1200000E0D6ECB
:1018EE00000E0E6E000E0F6E000E106E05A082EF33
:1018FE000CF084EF0CF08CEF0CF009500D260A5012
:10190E000E220B500F220C501022D89009360A3698
:10191E000B360C36D8900832073206320532055097
:10192E00061007100810D8A49FEF0CF0A1EF0CF0D2
:10193E007DEF0CF00DC005F00EC006F00FC007F0E5
:10194E0010C008F01200F40EF66E190EF76E000EAF
:10195E00F86E00EEADF010EE07F00900F5CFEEFFD9
:10196E00E550E150FAE100EE60F0380EEE6AE8065E
:10197E00FDE100EE4FF0070EEE6AE806FDE1019084
:10198E000192000EF86E00015FEF08F00650030B97
:10199E00AA6E05C0A9FF07C0A8FFA69EA69CA68496
:1019AE00000EF2BE010E086EF29E550EA76EAA0E26
:1019BE00A76EA68208B002D0F29E01D0F28EA6B219
:1019CE00EBEF0CF0EDEF0CF0E6EF0CF0A69412003E
:1019DE00056EACA2F5EF0CF0F7EF0CF0F0EF0CF09B
:0D19EE0005C0ADFF120000000C0709EA075C
:020000040030CA
:08000000FF02191EFF8081FFC1
:00000001FF
