:0400000011EF00F00C
:100008000182F2A40AEF00F00CEF00F00FEF00F00D
:0E001800F2940CEC0CF00192110064EF0DF06C
:10100000003C3C20426F74616F20534F4C544F2E74
:10101000204475726163616F3A20256C75206D7391
:101020002E204576656E746F2073616C766F206E2E
:101030006120454550524F4D2E0D0A003E3E204244
:101040006F74616F205052455353494F4E41444F86
:101050002E2052656769737472616E646F20696EC9
:101060006963696F20646F206576656E746F2E2EDC
:101070002E0D0A000D0A2D2D2D2053697374656DF8
:101080006120646520436F6C657461206465204451
:1010900061646F7320496E69636961646F202D2DEF
:0510A0002D0D0A000007
:1010A6000F0EC16E938092908990800E0F6E250E62
:1010B600106E000E116E000E126EA2EC0CF0740E85
:1010C600036E0350D8A4100E046E11EC0DF0880EBA
:1010D600D56EEC0ED76E780ED66EF294F28AF28E3C
:1010E6000001B36B000EAB6F000EAC6F000EAD6F60
:1010F600000EAE6F000E81B0010E0001B46FB40594
:10110600D8A488EF08F08AEF08F01AEF09F0B35177
:10111600D8A490EF08F092EF08F01AEF09F0820ECB
:10112600306EDE0EE82EFED7302EFCD781A09EEF65
:1011360008F0A0EF08F0D1EF09F020EED7F010EE9E
:10114600A0F0060EDBCFE3FFE806FCE20001D75174
:10115600306E316AE80E3002F3CF32F0F4CF33F05E
:101166003102F3503326030E3002F350332632C0D9
:1011760034F033C035F0000E35BEFF0E366E376ED6
:10118600D951026E036A046A056A800E066EEE0E77
:10119600076E360E086E000E096EDCEC0CF002C00F
:1011A60038F003C039F004C03AF005C03BF0000146
:1011B600D851026E036A046A056A600E066EEA0E6C
:1011C600076E000E086E000E096EDCEC0CF0025085
:1011D60038243C6E035039203D6E04503A203E6E52
:1011E60005503B203F6E34503C24406E35503D2028
:1011F600416E36503E20426E37503F20436E00010E
:10120600D5514024AB6FD6514120AC6F000E422021
:10121600AD6F000E4320AE6F89803C0E036E035007
:10122600D8A4100E046E11EC0DF0D1EF09F0B451F4
:10123600D8A420EF09F022EF09F0D1EF09F0B305A9
:10124600D8A428EF09F02AEF09F0D1EF09F0820EB1
:10125600306EDE0EE82EFED7302EFCD781B036EF8C
:1012660009F038EF09F0D1EF09F00001D751306EDF
:10127600316AE80E3002F3CF32F0F4CF33F03102A8
:10128600F3503326030E3002F350332632C034F0C7
:1012960033C035F0000E35BEFF0E366E376ED951AF
:1012A600026E036A046A056A800E066EEE0E076E0B
:1012B600360E086E000E096EDCEC0CF002C038F03B
:1012C60003C039F004C03AF005C03BF00001D85124
:1012D600026E036A046A056A600E066EEA0E076EFF
:1012E600000E086E000E096EDCEC0CF0025038247D
:1012F6003C6E035039203D6E04503A203E6E055038
:101306003B203F6E34503C24406E35503D20416EAC
:1013160036503E20426E37503F20436E0001D55175
:101326004024A76FD6514120A86F000E4220A96F16
:10133600000E4320AA6FAB51A75DAF6FAC51A85901
:10134600B06FAD51A959B16FAE51AA59B26F89901C
:1013560020EEA0F000EE0FF0060EDBCFEBFFE80666
:10136600FCE2AFC016F0B0C017F0B1C018F0B2C0C2
:1013760019F0F0EC0AF0600E1E6E010E1F6EAFC083
:1013860020F0B0C021F0B1C022F0B2C023F0A5EC2D
:101396000DF0600E036E046A11EC0DF0B4C0B3F0EC
:1013A6007DEF08F011EF00F01050D96EDA6ADFCF4A
:1013B600F6FF100EF76E000EF86E0800F550250ABF
:1013C600D8A4E8EF09F0EAEF09F0DCEF0AF01050D4
:1013D600D96EDA6ADF2A496A000E486E48C04EF0B6
:1013E6004A684B681050D96EDA6ADF50186E18C01A
:1013F600F6FF100EF76E000EF86E0800F5CF19F026
:101406000FEF0AF0182A1AEF0AF0690E196E1AEF92
:101416000AF0196A1AEF0AF019506C0AD8B405EFE7
:101426000AF0190AD8B408EF0AF00CEF0AF018C04F
:10143600F6FF100EF76E000EF86E0800F550750AEE
:10144600D8A428EF0AF02AEF0AF0D6EF0AF052EFF6
:101456000AF01150D96EDA6ADF50DF2ADF2AD96E18
:10146600DA6ADECF12F0DDCF13F012C014F013C02B
:1014760015F0166A176A5DEF0AF01150D96EDA6A2E
:10148600040EDF26DF5CD96EDA6ADECF14F0DECF1B
:1014960015F0DECF16F0DECF17F05DEF0AF019502B
:1014A600690AD8B42CEF0AF0050AD8B440EF0AF05E
:1014B6005DEF0AF01050D96EDA6A1828DF6EC8EFB1
:1014C6000AF0200E196E19061950B50FD96EDA6A90
:1014D60014C002F015C003F016C004F017C005F0E2
:1014E6000A0E066E000E076E000E086E000E096EDE
:1014F6005EEC0CF00250300FDF6E14C002F015C027
:1015060003F016C004F017C005F00A0E066E000EB2
:10151600076E000E086E000E096EBAEC0BF002C0E4
:1015260014F003C015F004C016F005C017F01450EF
:10153600151016101710D8B4A3EF0AF0A5EF0AF08D
:10154600BDEF0AF01950D8A4ABEF0AF0ADEF0AF0E0
:1015560066EF0AF0BDEF0AF01950B50FD96EDA6AD8
:10156600DF50126E1250026E036A0FC004F065EC73
:101576000BF0192A200E1918D8A4C4EF0AF0C6EFEA
:101586000AF0AFEF0AF0EFEF0AF018C0F6FF100E00
:10159600F76E000EF86E0800F550750AD8B464EFC1
:1015A6000AF0D6EF0AF01050D96EDA6ADF2AEFEFAA
:1015B6000AF01050D96EDA6ADFCFF6FF100EF76E1A
:1015C600000EF86E0800F550026E036A0FC004F0B4
:1015D60065EC0BF0D6EF0AF01200F90E4C5C030E28
:1015E6004D58D8A0F9EF0AF0FBEF0AF0FDEF0AF02C
:1015F60064EF0BF04CC002F04DC003F012C004F0D3
:1016060042EC0DF04C4A4D2A4CC002F04DC003F09E
:1016160013C004F042EC0DF04C4A4D2A4CC002F0C7
:101626004DC003F01450300F046E42EC0DF04C4ADE
:101636004D2A4CC002F04DC003F011C004F042EC3C
:101646000DF04C4A4D2A4CC002F04DC003F010C0BC
:1016560004F042EC0DF04C4A4D2A4CC002F04DC04D
:1016660003F00FC004F042EC0DF04C4A4D2A16C0B0
:1016760002F017C003F018C004F019C005F0E80E18
:10168600066E030E076E000E086E000E096EBAECAB
:101696000BF002C01AF003C01BF04CC002F04DC0A4
:1016A60003F01B50046E42EC0DF04C4A4D2A4CC020
:1016B60002F04DC003F01AC004F042EC0DF04C4AA3
:1016C6004D2A12000450D8B46BEF0BF06DEF0BF0FF
:1016D60075EF0BF00450D8A473EF0BF075EF0BF019
:1016E6007AEF0BF00250CCEC0DF0B9EF0BF0045092
:1016F600D96EDA6A090ED926DE50DE10D8B486EF26
:101706000BF088EF0BF0A1EF0BF00450D96EDA6AFC
:10171600090ED9260450E16EE26A020EE126DE5079
:10172600E65CE650800A096EDE50800A0958D8B099
:101736009FEF0BF0A1EF0BF0B9EF0BF00450D96E51
:10174600DA6A020ED926DF50056E0450D96EDA6ABF
:10175600DF500524D96EDA6A02C0DFFF0450D96E65
:10176600DA6A020ED926DE2A000EDD221200000EEB
:101776000A6E000E0B6E000E0C6E000E0D6E0650FD
:10178600071008100910D8B4CBEF0BF0CDEF0BF013
:1017960003EF0CF0010E0E6ED7EF0BF0D890063665
:1017A6000736083609360E2A09AEDCEF0BF0DEEFF7
:1017B6000BF0D1EF0BF0D8900A360B360C360D36FF
:1017C6000650025C07500358085004580950055843
:1017D600D8A0F0EF0BF0F2EF0BF0FBEF0BF006509A
:1017E600025E0750035A0850045A0950055A0A80E7
:1017F600D89009320832073206320E2EDEEF0BF091
:101806000AC002F00BC003F00CC004F00DC005F0D6
:101816001200EC0ED76E780ED66E0001D54BD62B85
:10182600010E4426000E452246224722E80ED55DCB
:10183600030ED659D8A022EF0CF024EF0CF05DEF82
:101846000CF0D66B000ED56FD72B3B0ED7652EEF5F
:101856000CF030EF0CF05DEF0CF0D76BD82B3B0E95
:10186600D86538EF0CF03AEF0CF05DEF0CF0D86B62
:10187600D92B170ED96542EF0CF044EF0CF05DEF53
:101886000CF0D96BDA2B1E0EDA654CEF0CF04EEF2E
:101896000CF05DEF0CF0010EDA6FDB2B0C0EDB6546
:1018A60057EF0CF059EF0CF05DEF0CF0010EDB6F0B
:1018B600DC4BDD2B12000650071008100910D8B4B7
:1018C60067EF0CF069EF0CF099EF0CF0010E0A6E61
:1018D60073EF0CF0D89006360736083609360A2A12
:1018E60009AE78EF0CF07AEF0CF06DEF0CF00650C5
:1018F600025C075003580850045809500558D8A0F0
:1019060087EF0CF089EF0CF091EF0CF00650025EB9
:101916000750035A0850045A0950055AD8900932FC
:101926000832073206320A2E7AEF0CF002C002F0B5
:1019360003C003F004C004F005C005F01200948C47
:10194600948E000E026E2D0E036E310E046E010E85
:10195600056E0FC013F010C014F011C015F012C0C0
:1019660016F0040ED8901336143615361636E82EB1
:10197600B5EF0CF013C006F014C007F015C008F060
:1019860016C009F0BAEC0BF0FF0E0224176EFF0E1C
:101996000320186EFF0E0420196EFF0E05201A6E26
:1019A600AC84B89617C0AFFFAC98AC8AAB88AB8E48
:1019B6001200000E0A6E000E0B6E000E0C6E000E6C
:1019C6000D6E02A0E9EF0CF0EBEF0CF0F3EF0CF06C
:1019D60006500A2607500B2208500C2209500D22E9
:1019E600D8900636073608360936D89005320432BE
:1019F600033202320250031004100510D8A406EF79
:101A06000DF008EF0DF0E4EF0CF00AC002F00BC089
:101A160003F00CC004F00DC005F0120028EF0DF025
:101A260003C0F6FF04C0F7FF000EF86E0F0EF76452
:101A360003D00800F55005D0F6CFE9FFF7CFEAFF4F
:101A4600EF50BDEC0DF0034A042A03C0F6FF04C0B4
:101A5600F7FF000EF86E0F0EF76403D00800F5507E
:101A660005D0F6CFE9FFF7CFEAFFEF500009D8A47B
:101A76003FEF0DF041EF0DF013EF0DF012000350A4
:101A8600030BAA6E02C0A9FF04C0A8FFA69EA69CCF
:101A9600A684000EF2BE010E056EF29E550EA76ECE
:101AA600AA0EA76EA68205B002D0F29E01D0F28ED3
:101AB600A6B260EF0DF062EF0DF05BEF0DF0A694AD
:101AC6001200900EF66E1B0EF76E000EF86E00EE0C
:101AD600D7F010EE07F00900F5CFEEFFE550E15024
:101AE600FAE100EEB5F0220EEE6AE806FDE100EE40
:101AF60044F00B0EEE6AE806FDE10190019200014A
:101B060053EF08F01BC01DF091EF0DF01AC00FF057
:101B16001D0E106E1CC011F0D7EC09F01DC0F6FFAB
:101B2600100EF76E000EF86E0800F5500009D8A4E6
:101B36009FEF0DF0A1EF0DF089EF0DF01B6A000E7F
:101B46001A6E1200200E246E1EC025F0286A000EA2
:101B5600276E2F6A000E2E6E250E1A6E1FC01BF002
:101B6600240E1C6E85EC0DF01E502724D96EDA6A01
:101B7600DF6A1200026EACA2C3EF0DF0C5EF0DF0E6
:101B8600BEEF0DF002C0ADFF120000000C0709EA1F
:011B96000747
:021B9800120039
:020000040030CA
:08000000FF02191EFF8081FFC1
:00000001FF
